:10000000F8C212C311C310C30FC30EC30DC30CC378
:100010000BC30AC309C308C307C306C305C304C38C
:1000200003C302C301C3000000000000002F000052
:100030000007000700147F147F14242A7F2A12C4AB
:10004000C810264636495522500005030000001C02
:100050002241000041221C0014083E081408083EFA
:1000600008080000503000101010101000606000F0
:100070000020100804023E5149453E00427F4000E6
:1000800042615149462141454B311814127F1027D6
:10009000454545393C4A494930017109050336490E
:1000A000494936064949291E0036360000005636B1
:1000B00000000814224100141414141400412214E6
:1000C000080201510906324959513E7E1111117E33
:1000D0007F494949363E414141227F4141221C7FAF
:1000E000494949417F090909013E4149497A7F0847
:1000F00008087F00417F41002040413F017F0814F4
:1001000022417F404040407F020C027F7F04081064
:100110007F3E4141413E7F090909063E4151215E32
:100120007F09192946464949493101017F01013FAB
:100130004040403F1F2040201F3F4038403F631455
:1001400008146307087008076151494543007F415F
:100150004100552A552A550041417F000402010201
:1001600004404040404000010204002054545478B0
:100170007F484444383844444420384444487F3815
:1001800054545418087E0901020C5252523E7F0802
:1001900004047800447D40002040443D007F102846
:1001A000440000417F40007C041804787C0804046B
:1001B0007838444444387C14141408081414187C07
:1001C0007C080404084854545420043F4440203C14
:1001D0004040207C1C2040201C3C4030403C4428B7
:1001E0001028440C5050503C4464544C44000609C0
:1001F0000906000101020304050506070809090AAA
:100200000B0C0C0D0E0F10101112131414151617E1
:100210001718191A1B1B1C1D1E1E1F20212222230A
:1002200024252626272829292A2B2C2D2D2E2F3030
:100230003131323334343536373838393A3B3C3C57
:100240003D3E3F3F4041424343444546464748497F
:100250004A4A4B4C4D4E4E4F5051515253545555A6
:1002600056575859595A5B5C5C5D5E5F60606162CD
:10027000636463626160605F5E5D5C5C5B5A595998
:1002800058575655555453525151504F4E4E4D4C50
:100290004B4A4A4948474646454443434241403F0A
:1002A0003F3E3D3C3C3B3A393838373635343433C1
:1002B000323131302F2E2D2D2C2B2A29292827267B
:1002C00026252423222221201F1E1E1D1C1B1B1A33
:1002D000191817171615141413121110100F0E0DEC
:1002E0000C0C0B0A090908070605050403020101A5
:1002F00000000000000000000000010101010202F6
:100300000303040405050606070808090A0B0B0C7D
:100310000D0E0F101111121314151617191A1B1C9C
:100320001D1E1F20212324252627292A2B2C2E2F72
:1003300030313234353637393A3B3C3D3F4041422B
:100340004344464748494A4B4C4D4E4F50515253F7
:10035000545556565758595A5A5B5C5C5D5E5E5F01
:100360005F60606161616262626363636363636370
:100370006364636363636363636362626261616155
:1003800060605F5F5E5E5D5C5C5B5A5A59585756B1
:10039000565554535251504F4E4D4C4B4A49484775
:1003A0004644434241403F3D3C3B3A393736353481
:1003B0003231302F2E2C2B2A2927262524232120A9
:1003C0001F1E1D1C1B1A19171615141312111110BC
:1003D0000F0E0D0C0B0B0A0908080706060505048D
:1003E00004030302020101010100000000000000FB
:1003F00000000808080808080808090909090A0A85
:100400000A0B0B0C0C0D0D0E0E0F10101112121307
:10041000141515161718191A1B1C1D1E1F1F202234
:10042000232425262728292A2B2C2D2E3031323320
:1004300034353637393A3B3C3D3E3F4042434445F4
:10044000464748494A4B4C4D4E4F505152535354D6
:100450005556575758595A5A5B5C5C5D5D5E5F5FF5
:10046000606060616162626262636363636363636D
:100470006364636363636363636362626262616153
:100480006060605F5F5E5D5D5C5C5B5A5A595857A7
:100490005756555453535251504F4E4D4C4B4A4959
:1004A00048474645444342403F3E3D3C3B3A39374E
:1004B000363534333231302E2D2C2B2A292827265D
:1004C00025242322201F1F1E1D1C1B1A1918171656
:1004D0001515141312121110100F0E0E0D0D0C0C19
:1004E0000B0B0A0A0A09090909080808080808087C
:1004F0000800780077FE77FB77F877F577F276EFEC
:1005000076EC75E975E674E373E072DE71DB70D842
:100510006FD56ED36DD06CCD6BCB69C868C566C323
:1005200065C063BE62BB60B95EB75CB45AB258B016
:1005300056AE54AC52AA50A84EA64CA449A247A00D
:10054000459E429D409B3D9A3B9838973595339404
:1005500030932D922B912890258F228E208D1D8CEB
:100560001A8B178B148A118A0E890B8908890589C1
:1005700002890088FE89FB89F889F589F289EF8A6A
:10058000EC8AE98BE68BE38CE08DDE8EDB8FD890F6
:10059000D591D392D093CD94CB95C897C598C39A53
:1005A000C09BBE9DBB9EB9A0B7A2B4A4B2A6B0A882
:1005B000AEAAACACAAAEA8B0A6B2A4B4A2B7A0B979
:1005C0009EBB9DBE9BC09AC398C597C895CB94CD42
:1005D00093D092D391D590D88FDB8EDE8DE08CE3D3
:1005E0008BE68BE98AEC8AEF89F289F589F889FB39
:1005F00089FE11241FBECFE5D4E0DEBFCDBF11E0E0
:10060000A0E6B0E0EEE1F8E102C005900D92AC3A50
:10061000B107D9F713E0ACEAB1E001C01D92AB3CE1
:10062000B107E1F7C3D6F9C8EBCC87B38C6287BBBF
:10063000BC9888B38C6288BBC4988CE58DB908954A
:10064000C198C2988FB9779BFECFC19A0895C1987F
:10065000C29A8FB9779BFECFC19A0895DF93CF934B
:100660000F92CDB7DEB780686983EADF6981862F94
:100670008064E6DF0F90CF91DF9108950F931F9371
:1006800080E060E0EBDF18E006C080E0E0DF0150D2
:10069000E1F7115011F00AE5F8CF80E060E0DEDF0D
:1006A0001F910F91089587B3876087BB88B38760D8
:1006B00088BBBBDFC0988FE79AE1A6E081509040ED
:1006C000A040E1F700C00000C09A81E2B9DF89EBE9
:1006D000B7DF86E0B5DF84E1B3DF80E2B1DF8CE035
:1006E000AFDFCCDF08950F931F93CF93DF93082FD5
:1006F00080E0ADDF85E0089F80011124E801C05A49
:10070000D0400B591040FE01EA5DFF4F84919FDFFE
:100710002196C017D107B9F780E099DFDF91CF911B
:100720001F910F9108950F931F93CF93DF93082F7D
:100730008FEF8DDF85E0089F80011124E801C05A0A
:10074000D0400B591040FE01EA5DFF4F8491809527
:100750007EDF2196C017D107B1F78FEF78DFDF91E9
:10076000CF911F910F910895EF92FF92CF93DF9356
:10077000E82EE7017E01F92EE70101C0B4DF89917F
:100780008823E1F7DF91CF91FF90EF900895EF92EA
:10079000FF921F93CF93DF93E82EE7017E01F92E9E
:1007A000E7011CE002C09FDF11508991882331F0DE
:1007B0001123C9F703C080E296DF11501123D9F746
:1007C000DF91CF911F91FF90EF900895EF92FF92EC
:1007D000CF93DF93E82EE7017E01F92EE70101C0F8
:1007E000A2DF89918823E1F7DF91CF91FF90EF900D
:1007F0000895EF92FF921F93CF93DF93E82EE701C6
:100800007E01F92EE7011CE002C08DDF11508991B5
:10081000882331F01123C9F703C080E284DF11502F
:100820001123D9F7DF91CF911F91FF90EF90089599
:100830001F93162F853508F084E5612F6695669520
:1008400066950CDF177081E090E001C0880F1A9563
:10085000EAF7FDDE1F9108950F931F93082F10E014
:10086000802F612FFBDE80E0F2DE1F5F1630C1F7C4
:100870001F910F91089587E886B9089590916000BF
:10088000981B90936000089597B1907F97B997B1A6
:10089000980F97B9369A3699FECF24B135B1C90170
:1008A000089597B1907F97B997B19062982B97B9B7
:1008B00086B1806686B9862F972FFC0180E090E094
:1008C00009C0349BFECF349A25B130916000231BC0
:1008D0002193019684179507A0F33598089596B152
:1008E000987F96B996B1982B96B9089596B19F7353
:1008F00096B9882319F086B1806C86B9089586B1BF
:10090000877386B908952F923F924F925F926F92AC
:100910007F928F929F92AF92BF92CF92DF92EF928F
:10092000FF920F931F93DF93CF93CDB7DEB72E9730
:100930000FB6F894DEBF0FBECDBF7C017F836E8300
:10094000FC0121E080E012C0891B96958917E0F731
:10095000890F281738F49181D701A80FB11D3C9158
:1009600031839C932F5F31962F3F11F090E8EECFAB
:1009700048E04C8360E071E07B836A8361E0462E4F
:10098000512C02E010E001C029019201220F331F17
:100990008A819B81969587959B838A83880F8C8714
:1009A0001D821982B0C0AD814A2F50E0FA01EE508D
:1009B000FB4F64914D505B4FFA0144911C01220E94
:1009C000331E3C01640C751C4701860C971CAE81DC
:1009D000BF816A0E7B1E6701C80ED91EFD01E80F9C
:1009E000F91F862F992787FD909599878887A42FCF
:1009F000BB27A7FDB095BB87AA87DE86CD865701AA
:100A0000D401CC90DD24C7FCD094D3016C9177271E
:100A100067FD7095488559854C9DC0014D9D900D91
:100A20005C9D900D1124AA85BB85A69FA001A79F60
:100A3000500DB69F500D1124841B950B4885598588
:100A4000469F7001479FF00C569FF00C1124AC9DFF
:100A5000A001AD9D500DBC9D500D1124E40EF51E5E
:100A600068E770E06AD66B01C70168E770E065D699
:100A70007B01AD85BE858C91992787FD90958C195A
:100A80009D09B8015AD6D4016C938081992787FDBE
:100A900090958E199F09B80150D6D3016C93AD85FE
:100AA000BE858C91992787FD90958C0D9D1DB80171
:100AB00044D6AD85BE856C938081992787FD90953E
:100AC0008E0D9F1DB80139D66083220E331E820E13
:100AD000931E620E731E4D855E85420F531F5E8707
:100AE0004D87E20FF31FC101821B930B8F3F9105CE
:100AF00009F008F485CF750159815F5F59836D81D5
:100B00007C85670F6D83A9818A2F90E084159505F8
:100B100008F449CFBC81B150BC83BB2309F034CF6A
:100B20002E960FB6F894DEBF0FBECDBFCF91DF91EA
:100B30001F910F91FF90EF90DF90CF90BF90AF90FB
:100B40009F908F907F906F905F904F903F902F90ED
:100B50000895DF92EF92FF920F931F93CF93DF934D
:100B6000EC017B01DD242D2D30E08E01020F131FDF
:100B7000F8018081992787FD90952E0D3F1DF90181
:100B80002081332727FD3095229FB001239F700DD0
:100B9000329F700D1124889F9001899F300D989F7E
:100BA000300D1124620F731F80E090E0F9D462D5FC
:100BB000C6D4F8016083DA94B1F681E00BC0FE017F
:100BC000E80FF11DDE01A90FB11D90812C91920F4C
:100BD00090838F5F982F9195803889F7DF91CF911F
:100BE0001F910F91FF90EF90DF9008950F931F9347
:100BF000CF93DF939C01662351F1613019F482EFAA
:100C000091E009C0633019F482EF92E004C06230D1
:100C100031F482EF93E09093B8018093B70140E004
:100C200004E610E0842F90E0E901C80FD91FE0919D
:100C3000B701F091B801E80FF91F6491588156038C
:100C4000C0011124B80179D56883415059F7DF916B
:100C5000CF911F910F9108958F929F92AF92BF9263
:100C6000CF92DF92EF92FF920F931F93DF93CF9378
:100C7000CDB7DEB728970FB6F894DEBF0FBECDBF55
:100C8000A090B301EA2DF0E0E254FD4F8081992756
:100C900087FD90956091A60170E04FD5B090A701B7
:100CA000B61A20E036E0932E8E010F5F1F4F98E0BA
:100CB000892E81E0C82ED12C4AC0F801492D11920D
:100CC0004A95E9F7A090B301A20EEA2DF0E0E254B4
:100CD000FD4F8081992787FD90956091A60170E076
:100CE0002CD53091A701361B30330CF03FE237FD95
:100CF00030E08B2D682D14D5B31614F4B39405C0D1
:100D00003B1514F4BA9401C0B32EF801E80FF11D9D
:100D1000A60102C0440F551F9A95E2F7CA0140810F
:100D2000482B40833B1529F7780190E0822F692FEB
:100D300028879F8393DCF70181917F0188DC9F8165
:100D40009F5F2885963091F72F5F243551F04A2D0B
:100D500050E08091A9019091AA014817590708F421
:100D6000ACCF28960FB6F894DEBF0FBECDBFCF91A3
:100D7000DF911F910F91FF90EF90DF90CF90BF9088
:100D8000AF909F908F90089580E063EC73E048E00F
:100D900050E087DD8091CA038595859585956EDD48
:100DA000089581B38A7281BB81B3886281BB82B3AB
:100DB000846D82BB82B3867D82BB84B323B330E073
:100DC0002470307041E050E0BA0102C0660F771F16
:100DD0002A95E2F79B012095282324BB25B383B3F2
:100DE00090E084709070BA0102C0660F771F8A95F8
:100DF000E2F7CB018095822385BB3DDD8091A80180
:100E00006EDD51DC089551E0849950E041E086990F
:100E100040E020B32095221F2227221F61E0829903
:100E200060E030B331708091BF03882311F4852FC7
:100E300002C080E090E08093BA028091C0038823D2
:100E400011F4842F02C080E090E08093BB02809177
:100E5000C103882311F4822F02C080E090E08093C8
:100E6000BC028091BE03882311F4862F02C080E06B
:100E700090E08093B9028091C203882311F4832FFC
:100E800002C080E090E08093BD026093BE03509367
:100E9000BF034093C0032093C1033093C20308955E
:100EA00080E062E0DBDB82E690E090DCACDF80910A
:100EB000B902882319F0939AE1DB08958FEF90E748
:100EC000A2E081509040A040E1F700C0000093985C
:100ED000A895ECCF6F927F928F929F92AF92BF9224
:100EE000CF92DF92EF92FF920F931F93CF93DF93F6
:100EF0007B018C016A0197FF0CC08DE2FA018083AF
:100F000010950095F094E094E11CF11C011D111D59
:100F100003C080E2FA018083A8019701BB246AE044
:100F2000662E712C812C912C06C0B394CA01B90194
:100F3000A401930115D42115310541055105A9F7E7
:100F4000CB2DD0E02196CC0DDD1DAA244AE0642EE5
:100F5000712C812C912C0AC0C801B701A401930106
:100F6000FFD379018A01605D6A93A394AB14A0F367
:100F70008B2D8F5F90E205C0F601E80FF11D908385
:100F80008F5F8830C8F3F6011782DF91CF911F91F0
:100F90000F91FF90EF90DF90CF90BF90AF909F9018
:100FA0008F907F906F9008958F929F92AF92BF9293
:100FB000CF92DF92EF92FF920F931F93CF93DF9325
:100FC0005DDB21DF81E08093BC02C0E0D0E0EE2455
:100FD000FF248701CC24DD24FFE4AF2EF9E0BF2EEF
:100FE000E4E19E2E78E2872E8091B902882379F081
:100FF000939A44DBDF91CF911F910F91FF90EF9077
:10100000DF90CF90BF90AF909F908F900895809188
:10101000BC02882309F44AC04091A9015091AA0159
:1010200080E06EEB72E03DDC8EEB92E069EB71E00C
:101030006ADC8EEB92E069EB71E08BDD50E040E022
:1010400080E090E0E42FF0E0E254FD4F2081332770
:1010500027FD30958217930710F4542FC9014F5F75
:10106000403881F72091A5013091BE022302E001B2
:101070001124332727FD3095829F6001839FD00C78
:10108000929FD00C1124852F90E08A9D70018B9D3A
:10109000F00C9A9DF00C11240090A80102C0F69467
:1010A000E7940A94E2F700E010E0939A9A9B03C059
:1010B0008092A50102C09092A50180E060E0CEDAA6
:1010C0008FE690E064DBB60180E090E043EC53E013
:1010D00001DF80E061E0C2DA83EC93E045DB8CE77E
:1010E00090E042DB80E062E0B9DA8FE790E04FDB2E
:1010F00080E063E0B3DABE01882777FD8095982F02
:1011000043EC53E0E7DE83EC93E02EDB8CE790E0EA
:101110002BDB80E064E0A2DA8BE890E038DBC801EA
:10112000B70143EC53E0D6DE80E065E097DA83EC6C
:1011300093E01ADB85E990E017DB65DE8FEF90E73F
:10114000A2E081509040A040E1F700C00000A895C7
:1011500093984ACF3F924F925F926F927F928F9275
:101160009F92AF92BF92CF92DF92EF92FF920F9336
:101170001F93CF93DF9382DABB24CC24DD24552444
:101180005394F5E04F2EE0E23E2E3DDECB2DD0E035
:10119000CE01880F991F6FE8862E61E0962E880E8B
:1011A000991E5CEA652E51E0752E6C0E7D1E48ED91
:1011B000E42E40E0F42EE80EF91EAA240D2D10E0D6
:1011C00080E06A2D4BDA0C171D0759F4CC2049F446
:1011D000F801EE0FFF1FE852FF4F8081918109DB7C
:1011E00004C0D7018D919C91D2DA6A2D6F5F80E0A7
:1011F00035DAD401ED91FD914D01D3018D913D0181
:1012000090E0880F991FE80FF91F80819181CC2011
:1012100029F00C171D0711F4ECDA01C0B8DAB2E0BE
:10122000AB0E2196E2E0F0E0EE0EFF1EFA2DF63056
:1012300039F68091B902882309F444C0939ACC20EE
:10124000E9F1DD2011F4B0DE3CC08D2D813039F4A0
:101250008091AD018F5F8093A80141DB32C09D2D4D
:10126000923079F48091AE01882319F44092A6015E
:1012700028C0813019F4D092A60123C05092A60153
:1012800020C0AD2DA33029F48091AF018093B4012B
:1012900018C0BD2DB43029F48091B0018093B50100
:1012A00010C0ED2DE53029F48091B1018093B60195
:1012B00008C0FD2DF63029F467DD03C0CC24C394AB
:1012C00001C0CC248091BA028823D9F0939ACC2013
:1012D00069F0F801E455FE4F8081882321F4D8019C
:1012E000A256BE4F8C91815080830BC0DD2029F027
:1012F000DA94DB1430F4BA9404C0B4E0BB2EA6E058
:10130000DA2E8091BB02882311F1939ACC2081F0D0
:101310008D2D90E0FC01E455FE4F20812F5F20834E
:1013200082569E4FDC018C91281788F010820FC0E6
:10133000D3948B2D90E002962D2D30E082179307E9
:101340000CF4B394BD2DB73010F0BB24DD24809194
:10135000BC028823E1F0939A91D94091A901509160
:10136000AA0180E06EEB72E09CDADF91CF911F91D1
:101370000F91FF90EF90DF90CF90BF90AF909F9034
:101380008F907F906F905F904F903F9008958FEF78
:1013900090E7A2E081509040A040E1F700C000003B
:1013A00082B3832582BB9398A895EFCEAF92BF926C
:1013B000CF92DF92EF92FF920F931F93CF93DF9321
:1013C000F0DC2EE088E190E00FB6F894A89581BD9E
:1013D0000FBE21BD18DD64DD4091A9015091AA0125
:1013E00080E06EEB72E05DDAC0E0D1E004E610E090
:1013F00027E1C22E9FE2D92E80E8E82EF12CB0E240
:10140000BB2E01DD8091B4018130F9F41093AA0163
:101410000093A901A4E1AA2E80E063EC73E048E008
:1014200050E03FDA8091C70387FF04C08091C80372
:1014300018161CF0A895AA9479F74091A90150912B
:10144000AA0180E06EEB72E014C0823021F480913A
:10145000BD02882329F48091BC02882359F0939A15
:10146000D093AA01C093A90180E06EEB72E040E046
:1014700051E017DA8091C003882381F04091B301D5
:10148000242F30E08091A9019091AA0184559040C9
:101490002817390718F44B5F4093B3018091BB02C2
:1014A0008111939A8091BF03882339F08091B30111
:1014B000882319F085508093B3018091BA0281117D
:1014C000939A8091B902882311F0939A43DE809118
:1014D000B5018823F1F04091A9015091AA0180E063
:1014E0006EEB72E0DED98EEB92E06091B6017EDBAE
:1014F000D092A701F092AA01E092A9018EEB92E0AE
:1015000069EB71E000DA8EEB92E069EB71E021DBD0
:1015100006C0C092A701D093AA01C093A9019CDB89
:101520008FEF90E7A2E081509040A040E1F700C02B
:101530000000A89582B38B2582BB939862CF04D01C
:101540006894B1118DC0089570D088F09F5790F0C5
:10155000B92F9927B751A0F0D1F0660F771F881FD8
:10156000991F1AF0BA95C9F712C0B13081F077D03F
:10157000B1E0089574C0672F782F8827B85F39F0DD
:10158000B93FCCF3869577956795B395D9F73EF437
:1015900090958095709561957F4F8F4F9F4F0895DF
:1015A000E89409C097FB3EF49095809570956195FD
:1015B0007F4F8F4F9F4F9923A9F0F92F96E9BB27B3
:1015C0009395F695879577956795B795F111F8CF2F
:1015D000FAF4BB0F11F460FF1BC06F5F7F4F8F4F9A
:1015E0009F4F16C0882311F096E911C0772321F090
:1015F0009EE8872F762F05C0662371F096E8862F28
:1016000070E060E02AF09A95660F771F881FDAF77E
:10161000880F9695879597F9089557FD9058440F30
:10162000551F59F05F3F71F04795880F97FB991F41
:1016300061F09F3F79F087950895121613061406FE
:10164000551FF2CF4695F1DF08C01616170618068B
:10165000991FF1CF86957105610508940895E89466
:10166000BB2766277727CB0197F9089511F40EF46D
:101670004DC03EC0DADFD0F39923D9F3CEF39F57A4
:10168000550B87FF46D00024A0E640EA9001805821
:101690005695979528F4805C660F771F881F20F079
:1016A00026173707480730F4621B730B840B202979
:1016B00031294A2BA69517940794202531254A27CE
:1016C00058F7660F771F881F20F02617370748073F
:1016D00030F4620B730B840B200D311D411DA0955E
:1016E00081F7B901842F9158880F969587950895B1
:1016F0009F3F31F0915020F4879577956795B79586
:10170000880F911D9695879597F908959FEF80EC26
:10171000089591505040660F771F881FD2F70895A3
:1017200087FB082E062687FD819567FD619533D0DE
:101730000EF4919507FC8195089597FB092E0726D5
:101740000AD077FD04D033D006D000201AF470956B
:1017500061957F4F0895F6F7909581959F4F089575
:1017600097FB092E05260ED057FD04D034D00AD0A1
:10177000001C38F450954095309521953F4F4F4FC0
:101780005F4F0895F6F790958095709561957F4F1E
:101790008F4F9F4F0895991B79E004C0991F9617AA
:1017A00008F0961B881F7A95C9F780950895AA1BA3
:1017B000BB1B51E107C0AA1FBB1FA617B70710F03C
:1017C000A61BB70B881F991F5A95A9F7809590956E
:1017D000BC01CD010895A1E21A2EAA1BBB1BFD017D
:1017E0000DC0AA1FBB1FEE1FFF1FA217B307E40700
:1017F000F50720F0A21BB30BE40BF50B661F771F58
:10180000881F991F1A9469F7609570958095909537
:0E1810009B01AC01BD01CF010895F894FFCFFC
:10181E005FFF4F7363696C6C6F73636F706500501D
:10182E0065616B20566F6C74616765006D56004183
:10183E00766720566F6C74616765004672657175C8
:10184E00656E637900487A004D6561737572656DDA
:10185E00656E740053616D706C6520467265710023
:10186E00566F6C742D5363616C65005472696767B3
:10187E006572004646540057696E646F7700436187
:10188E006C696272617465009800A400B000BB00C0
:10189E00C300C700CE00537461727400E60033308B
:1018AE00354B687A003135324B687A0037364B68E3
:1018BE007A0033384B687A0031394B687A00394BED
:1018CE00687A00354B687A00EE00F500FC000201E4
:1018DE0008010E0113013520566F6C74003220562C
:1018EE006F6C74003120566F6C740026012D01341C
:1018FE00014D616E75616C004175746F00457874B1
:10190E0065726E616C00410148014D016F666600A3
:10191E004F6E005C01600152656374616E676C65A9
:10192E0000547269616E676C650048616D6D696E19
:10193E00670048616E6E00670171017A018201ECE9
:10194E000018013B01560163018701EC00070007F7
:0C195E000303020400140517010001003F
:00000001FF
